{
    "contractName": "Main",
    "abi": [
        {
            "inputs": [
                {
                    "internalType": "bytes32",
                    "name": "UUID",
                    "type": "bytes32"
                }
            ],
            "name": "getChain",
            "outputs": [
                {
                    "internalType": "bytes32[][3]",
                    "name": "",
                    "type": "bytes32[][3]"
                }
            ],
            "stateMutability": "view",
            "type": "function"
        },
        {
            "inputs": [
                {
                    "internalType": "bytes32",
                    "name": "",
                    "type": "bytes32"
                },
                {
                    "internalType": "uint256",
                    "name": "",
                    "type": "uint256"
                },
                {
                    "internalType": "uint256",
                    "name": "",
                    "type": "uint256"
                }
            ],
            "name": "productChain",
            "outputs": [
                {
                    "internalType": "bytes32",
                    "name": "",
                    "type": "bytes32"
                }
            ],
            "stateMutability": "view",
            "type": "function"
        },
        {
            "inputs": [
                {
                    "internalType": "bytes32",
                    "name": "UUID",
                    "type": "bytes32"
                },
                {
                    "internalType": "bytes32[]",
                    "name": "suppliers",
                    "type": "bytes32[]"
                },
                {
                    "internalType": "bytes32[]",
                    "name": "times",
                    "type": "bytes32[]"
                },
                {
                    "internalType": "bytes32[]",
                    "name": "descriptions",
                    "type": "bytes32[]"
                }
            ],
            "name": "updateChain",
            "outputs": [],
            "stateMutability": "nonpayable",
            "type": "function"
        }
    ],
    "bytecode": "608060405234801561001057600080fd5b506104ff806100206000396000f3fe608060405234801561001057600080fd5b50600436106100415760003560e01c80635f9d9f511461004657806374f068211461006f5780638052494d14610084575b600080fd5b610059610054366004610420565b6100a4565b60405161006691906104c0565b60405180910390f35b61008261007d366004610392565b6100df565b005b61009761009236600461037a565b610124565b604051610066919061044b565b600060205282600052604060002082600381106100bd57fe5b0181815481106100c957fe5b9060005260206000200160009250925050505481565b6100e76101c8565b506040805160608101825284815260208082018590528183018490526000878152908190529190912061011c908260036101ef565b505050505050565b61012c6101c8565b6101346101c8565b6000838152602081905260408082208151606081019092529091600390835b828210156101bc578382018054806020026020016040519081016040528092919081815260200182805480156101a857602002820191906000526020600020905b815481526020019060010190808311610194575b505050505081526020019060010190610153565b50929695505050505050565b60405180606001604052806003905b60608152602001906001900390816101d75790505090565b826003810192821561022f579160200282015b8281111561022f578251805161021f91849160209091019061023f565b5091602001919060010190610202565b5061023b929150610286565b5090565b82805482825590600052602060002090810192821561027a579160200282015b8281111561027a57825182559160200191906001019061025f565b5061023b9291506102ac565b6102a991905b8082111561023b5760006102a082826102c6565b5060010161028c565b90565b6102a991905b8082111561023b57600081556001016102b2565b50805460008255906000526020600020908101906102e491906102ac565b50565b600082601f8301126102f7578081fd5b813567ffffffffffffffff8082111561030e578283fd5b60208083026040518282820101818110858211171561032b578687fd5b60405284815294508185019250858201818701830188101561034c57600080fd5b600091505b8482101561036f578035845292820192600191909101908201610351565b505050505092915050565b60006020828403121561038b578081fd5b5035919050565b600080600080608085870312156103a7578283fd5b84359350602085013567ffffffffffffffff808211156103c5578485fd5b6103d1888389016102e7565b945060408701359150808211156103e6578384fd5b6103f2888389016102e7565b93506060870135915080821115610407578283fd5b50610414878288016102e7565b91505092959194509250565b600080600060608486031215610434578283fd5b505081359360208301359350604090920135919050565b60208082526000906080830183820185845b60038110156104b457868403601f19018352815180518086528791878701919088015b8184101561049e578051835260019390930192918801918801610480565b509095505050918401919084019060010161045d565b50919695505050505050565b9081526020019056fea2646970667358221220edd42d21be99c5c7c6d4a2944a36d4f4d72f8ae7dad87a91018591055c30764664736f6c63430006040033",
    "sourcePath": "/Users/xinkailuo/project/COMP90055/contracts/Product.sol",
    "compiler": {
        "name": "solc",
        "version": "0.6.4+commit.1dca32f3"
    },
    "functionHashes": {
        "getChain(bytes32)": "8052494d",
        "productChain(bytes32,uint256,uint256)": "5f9d9f51",
        "updateChain(bytes32,bytes32[],bytes32[],bytes32[])": "74f06821"
    },
    "gasEstimates": {
        "creation": {
            "codeDepositCost": "255800",
            "executionCost": "294",
            "totalCost": "256094"
        },
        "external": {
            "getChain(bytes32)": "infinite",
            "productChain(bytes32,uint256,uint256)": "2118",
            "updateChain(bytes32,bytes32[],bytes32[],bytes32[])": "infinite"
        }
    }
}