{
    "contractName": "supplyBlock",
    "abi": [
        {
            "inputs": [
                {
                    "internalType": "bytes32",
                    "name": "_supplier_name",
                    "type": "bytes32"
                },
                {
                    "internalType": "bytes32",
                    "name": "_time",
                    "type": "bytes32"
                },
                {
                    "internalType": "bytes32",
                    "name": "_description",
                    "type": "bytes32"
                }
            ],
            "stateMutability": "nonpayable",
            "type": "constructor"
        },
        {
            "inputs": [],
            "name": "getDescription",
            "outputs": [
                {
                    "internalType": "bytes32",
                    "name": "",
                    "type": "bytes32"
                }
            ],
            "stateMutability": "view",
            "type": "function"
        },
        {
            "inputs": [],
            "name": "getSupplierAdd",
            "outputs": [
                {
                    "internalType": "address",
                    "name": "",
                    "type": "address"
                }
            ],
            "stateMutability": "view",
            "type": "function"
        },
        {
            "inputs": [],
            "name": "getSupplierName",
            "outputs": [
                {
                    "internalType": "bytes32",
                    "name": "",
                    "type": "bytes32"
                }
            ],
            "stateMutability": "view",
            "type": "function"
        },
        {
            "inputs": [],
            "name": "getTime",
            "outputs": [
                {
                    "internalType": "bytes32",
                    "name": "",
                    "type": "bytes32"
                }
            ],
            "stateMutability": "view",
            "type": "function"
        }
    ],
    "bytecode": "608060405234801561001057600080fd5b5060405161029e38038061029e83398101604081905261002f916100b2565b826100555760405162461bcd60e51b815260040161004c906100df565b60405180910390fd5b816100725760405162461bcd60e51b815260040161004c90610122565b8061008f5760405162461bcd60e51b815260040161004c90610159565b600080546001600160a01b0319163317905560019290925560025560035561019a565b6000806000606084860312156100c6578283fd5b8351925060208401519150604084015190509250925092565b60208082526023908201527f506c6561736520656e74657220612076616c696420737570706c696572206e6160408201526236b29760e91b606082015260800190565b6020808252601a908201527f506c6561736520656e74657220612076616c69642074696d652e000000000000604082015260600190565b60208082526021908201527f506c6561736520656e74657220612076616c6964206465736372697074696f6e6040820152601760f91b606082015260800190565b60f6806101a86000396000f3fe6080604052348015600f57600080fd5b506004361060465760003560e01c80631115098214604b5780631a092541146065578063557ed1ba146076578063b83564cd14607c575b600080fd5b60516082565b604051605c919060a3565b60405180910390f35b606b6091565b604051605c919060b7565b606b6097565b606b609d565b6000546001600160a01b031690565b60035490565b60025490565b60015490565b6001600160a01b0391909116815260200190565b9081526020019056fea264697066735822122032fbf2d425b60c01599e061eecc8601731f659aefd65924cbf745f85e7d268ef64736f6c63430006040033",
    "sourcePath": "/Users/xinkailuo/project/COMP90055/contracts/Product.sol",
    "compiler": {
        "name": "solc",
        "version": "0.6.4+commit.1dca32f3"
    },
    "functionHashes": {
        "getDescription()": "1a092541",
        "getSupplierAdd()": "11150982",
        "getSupplierName()": "b83564cd",
        "getTime()": "557ed1ba"
    },
    "gasEstimates": {
        "creation": {
            "codeDepositCost": "49200",
            "executionCost": "infinite",
            "totalCost": "infinite"
        },
        "external": {
            "getDescription()": "1028",
            "getSupplierAdd()": "1048",
            "getSupplierName()": "1072",
            "getTime()": "1050"
        }
    }
}