{
  "contractName": "Main",
  "abi": [
    {
      "inputs": [
        {
          "internalType": "string",
          "name": "",
          "type": "string"
        }
      ],
      "name": "productChain",
      "outputs": [
        {
          "internalType": "bool",
          "name": "exist",
          "type": "bool"
        },
        {
          "internalType": "bool",
          "name": "isNull",
          "type": "bool"
        }
      ],
      "stateMutability": "view",
      "type": "function",
      "constant": true
    },
    {
      "inputs": [
        {
          "internalType": "string",
          "name": "_UUID",
          "type": "string"
        }
      ],
      "name": "createProduct",
      "outputs": [
        {
          "internalType": "string",
          "name": "",
          "type": "string"
        }
      ],
      "stateMutability": "nonpayable",
      "type": "function"
    },
    {
      "inputs": [
        {
          "internalType": "string",
          "name": "_UUID",
          "type": "string"
        },
        {
          "internalType": "string",
          "name": "description",
          "type": "string"
        }
      ],
      "name": "updateChain",
      "outputs": [
        {
          "internalType": "string",
          "name": "",
          "type": "string"
        }
      ],
      "stateMutability": "nonpayable",
      "type": "function"
    },
    {
      "inputs": [
        {
          "internalType": "string",
          "name": "_UUID",
          "type": "string"
        }
      ],
      "name": "getChain",
      "outputs": [
        {
          "internalType": "string[]",
          "name": "",
          "type": "string[]"
        }
      ],
      "stateMutability": "view",
      "type": "function",
      "constant": true
    },
    {
      "inputs": [
        {
          "internalType": "string",
          "name": "_UUID",
          "type": "string"
        }
      ],
      "name": "getLastBlock",
      "outputs": [
        {
          "internalType": "string",
          "name": "",
          "type": "string"
        }
      ],
      "stateMutability": "view",
      "type": "function",
      "constant": true
    }
  ],
  "bytecode": "0x608060405234801561001057600080fd5b5061149b806100206000396000f3fe608060405234801561001057600080fd5b50600436106100575760003560e01c806302ec06be1461005c5780634cc1c2bb1461008c57806375f9a1f3146100bc57806381695353146100ec578063ef6e926c1461011d575b600080fd5b61007660048036038101906100719190610e7c565b61014d565b6040516100839190611241565b60405180910390f35b6100a660048036038101906100a19190610e7c565b6102bb565b6040516100b391906111f6565b60405180910390f35b6100d660048036038101906100d19190610e7c565b610535565b6040516100e39190611241565b60405180910390f35b61010660048036038101906101019190610e3b565b6107cc565b604051610114929190611218565b60405180910390f35b61013760048036038101906101329190610ebd565b610820565b6040516101449190611241565b60405180910390f35b606060405160200161015e906111e1565b604051602081830303815290604052805190602001208260405160200161018591906111ca565b6040516020818303038152906040528051906020012014156101dc576040517f08c379a00000000000000000000000000000000000000000000000000000000081526004016101d3906112c3565b60405180910390fd5b606060405180606001604052806001151581526020016001151581526020018281525060008460405161020f91906111ca565b908152602001604051809103902060008201518160000160006101000a81548160ff02191690831515021790555060208201518160000160016101000a81548160ff0219169083151502179055506040820151816001019080519060200190610279929190610bba565b509050506040518060400160405280601c81526020017f50726f6475637420637265617465207375636365737366756c6c792100000000815250915050919050565b60606040516020016102cc906111e1565b60405160208183030381529060405280519060200120826040516020016102f391906111ca565b60405160208183030381529060405280519060200120141561034a576040517f08c379a0000000000000000000000000000000000000000000000000000000008152600401610341906112c3565b60405180910390fd5b60008260405161035a91906111ca565b908152602001604051809103902060000160009054906101000a900460ff166103b8576040517f08c379a00000000000000000000000000000000000000000000000000000000081526004016103af90611263565b60405180910390fd5b6000826040516103c891906111ca565b908152602001604051809103902060000160019054906101000a900460ff1615610427576040517f08c379a000000000000000000000000000000000000000000000000000000000815260040161041e90611283565b60405180910390fd5b606060008360405161043991906111ca565b9081526020016040518091039020600101805480602002602001604051908101604052809291908181526020016000905b82821015610526578382906000526020600020018054600181600116156101000203166002900480601f0160208091040260200160405190810160405280929190818152602001828054600181600116156101000203166002900480156105125780601f106104e757610100808354040283529160200191610512565b820191906000526020600020905b8154815290600101906020018083116104f557829003601f168201915b50505050508152602001906001019061046a565b50505050905080915050919050565b6060604051602001610546906111e1565b604051602081830303815290604052805190602001208260405160200161056d91906111ca565b6040516020818303038152906040528051906020012014156105c4576040517f08c379a00000000000000000000000000000000000000000000000000000000081526004016105bb906112c3565b60405180910390fd5b6000826040516105d491906111ca565b908152602001604051809103902060000160009054906101000a900460ff16610632576040517f08c379a000000000000000000000000000000000000000000000000000000000815260040161062990611263565b60405180910390fd5b60008260405161064291906111ca565b908152602001604051809103902060000160019054906101000a900460ff16156106a1576040517f08c379a000000000000000000000000000000000000000000000000000000000815260040161069890611283565b60405180910390fd5b60606000836040516106b391906111ca565b9081526020016040518091039020600101805480602002602001604051908101604052809291908181526020016000905b828210156107a0578382906000526020600020018054600181600116156101000203166002900480601f01602080910402602001604051908101604052809291908181526020018280546001816001161561010002031660029004801561078c5780601f106107615761010080835404028352916020019161078c565b820191906000526020600020905b81548152906001019060200180831161076f57829003601f168201915b5050505050815260200190600101906106e4565b5050505090506060816001835103815181106107b857fe5b602002602001015190508092505050919050565b6000818051602081018201805184825260208301602085012081835280955050505050506000915090508060000160009054906101000a900460ff16908060000160019054906101000a900460ff16905082565b6060604051602001610831906111e1565b604051602081830303815290604052805190602001208360405160200161085891906111ca565b6040516020818303038152906040528051906020012014156108af576040517f08c379a00000000000000000000000000000000000000000000000000000000081526004016108a6906112c3565b60405180910390fd5b6040516020016108be906111e1565b60405160208183030381529060405280519060200120826040516020016108e591906111ca565b60405160208183030381529060405280519060200120141561093c576040517f08c379a0000000000000000000000000000000000000000000000000000000008152600401610933906112a3565b60405180910390fd5b60008360405161094c91906111ca565b908152602001604051809103902060000160009054906101000a900460ff166109aa576040517f08c379a00000000000000000000000000000000000000000000000000000000081526004016109a190611263565b60405180910390fd5b6000836040516109ba91906111ca565b908152602001604051809103902060000160019054906101000a900460ff1615610aa657600080846040516109ef91906111ca565b908152602001604051809103902060000160016101000a81548160ff02191690831515021790555060606001604051908082528060200260200182016040528015610a4e57816020015b6060815260200190600190039081610a395790505b5090508281600081518110610a5f57fe5b602002602001018190525080600085604051610a7b91906111ca565b90815260200160405180910390206001019080519060200190610a9f929190610c1a565b5050610b99565b6060610ab1846102bb565b905060606001825101604051908082528060200260200182016040528015610aed57816020015b6060815260200190600190039081610ad85790505b50905060008090505b82518111610b5f5760018351038111610b3957828181518110610b1557fe5b6020026020010151828281518110610b2957fe5b6020026020010181905250610b52565b84828281518110610b4657fe5b60200260200101819052505b8080600101915050610af6565b5080600086604051610b7191906111ca565b90815260200160405180910390206001019080519060200190610b95929190610c1a565b5050505b60405180606001604052806022815260200161144460229139905092915050565b828054828255906000526020600020908101928215610c09579160200282015b82811115610c08578251829080519060200190610bf8929190610c7a565b5091602001919060010190610bda565b5b509050610c169190610cfa565b5090565b828054828255906000526020600020908101928215610c69579160200282015b82811115610c68578251829080519060200190610c58929190610c7a565b5091602001919060010190610c3a565b5b509050610c769190610cfa565b5090565b828054600181600116156101000203166002900490600052602060002090601f016020900481019282601f10610cbb57805160ff1916838001178555610ce9565b82800160010185558215610ce9579182015b82811115610ce8578251825591602001919060010190610ccd565b5b509050610cf69190610d26565b5090565b610d2391905b80821115610d1f5760008181610d169190610d4b565b50600101610d00565b5090565b90565b610d4891905b80821115610d44576000816000905550600101610d2c565b5090565b90565b50805460018160011615610100020316600290046000825580601f10610d715750610d90565b601f016020900490600052602060002090810190610d8f9190610d26565b5b50565b600082601f830112610da457600080fd5b8135610db7610db282611310565b6112e3565b91508082526020830160208301858383011115610dd357600080fd5b610dde8382846113f0565b50505092915050565b600082601f830112610df857600080fd5b8135610e0b610e068261133c565b6112e3565b91508082526020830160208301858383011115610e2757600080fd5b610e328382846113f0565b50505092915050565b600060208284031215610e4d57600080fd5b600082013567ffffffffffffffff811115610e6757600080fd5b610e7384828501610d93565b91505092915050565b600060208284031215610e8e57600080fd5b600082013567ffffffffffffffff811115610ea857600080fd5b610eb484828501610de7565b91505092915050565b60008060408385031215610ed057600080fd5b600083013567ffffffffffffffff811115610eea57600080fd5b610ef685828601610de7565b925050602083013567ffffffffffffffff811115610f1357600080fd5b610f1f85828601610de7565b9150509250929050565b6000610f35838361102b565b905092915050565b6000610f4882611378565b610f5281856113a6565b935083602082028501610f6485611368565b8060005b85811015610fa05784840389528151610f818582610f29565b9450610f8c83611399565b925060208a01995050600181019050610f68565b50829750879550505050505092915050565b610fbb816113e4565b82525050565b6000610fcc8261138e565b610fd681856113c8565b9350610fe68185602086016113ff565b610fef81611432565b840191505092915050565b60006110058261138e565b61100f81856113d9565b935061101f8185602086016113ff565b80840191505092915050565b600061103682611383565b61104081856113b7565b93506110508185602086016113ff565b61105981611432565b840191505092915050565b6000611071601a836113c8565b91507f506c6561736520656e74657220612076616c696420555549442e0000000000006000830152602082019050919050565b60006110b1603a836113c8565b91507f546869732070726f6475637420646f6573206e6f74206861766520616e79206960008301527f6e64757374727920636861696e20696e666f726d6174696f6e2e0000000000006020830152604082019050919050565b60006111176000836113d9565b9150600082019050919050565b60006111316021836113c8565b91507f506c6561736520656e74657220612076616c6964206465736372697074696f6e60008301527f2e000000000000000000000000000000000000000000000000000000000000006020830152604082019050919050565b60006111976014836113c8565b91507f506c6561736520656e746572206120555549442e0000000000000000000000006000830152602082019050919050565b60006111d68284610ffa565b915081905092915050565b60006111ec8261110a565b9150819050919050565b600060208201905081810360008301526112108184610f3d565b905092915050565b600060408201905061122d6000830185610fb2565b61123a6020830184610fb2565b9392505050565b6000602082019050818103600083015261125b8184610fc1565b905092915050565b6000602082019050818103600083015261127c81611064565b9050919050565b6000602082019050818103600083015261129c816110a4565b9050919050565b600060208201905081810360008301526112bc81611124565b9050919050565b600060208201905081810360008301526112dc8161118a565b9050919050565b6000604051905081810181811067ffffffffffffffff8211171561130657600080fd5b8060405250919050565b600067ffffffffffffffff82111561132757600080fd5b601f19601f8301169050602081019050919050565b600067ffffffffffffffff82111561135357600080fd5b601f19601f8301169050602081019050919050565b6000819050602082019050919050565b600081519050919050565b600081519050919050565b600081519050919050565b6000602082019050919050565b600082825260208201905092915050565b600082825260208201905092915050565b600082825260208201905092915050565b600081905092915050565b60008115159050919050565b82818337600083830152505050565b60005b8381101561141d578082015181840152602081019050611402565b8381111561142c576000848401525b50505050565b6000601f19601f830116905091905056fe50726f6475637420636861696e20757064617465207375636365737366756c6c7921a2646970667358221220f1f042020785a108185f0690b12dcc339a5f12dfdbc3ad0d08c0cc3001f23d8f64736f6c63430006040033",
  "source": "pragma solidity ^0.6.4;\npragma experimental ABIEncoderV2;\n\ncontract Main{\n    \n    //exist用于验证该键值对是否存在，存在时为真，不存在时为假\n    //isNull用于验证chain是否为空，刚被创建时为真，被add后为假\n    //String[]用于储存每一个供应链信息的md5\n    struct Product{\n        bool exist;\n        bool isNull;\n        string[] chain;\n    }\n\n    mapping(string => Product) public productChain; //将UUID映射到商品结构体\n\n    //创建新商品时调用，映射为一个含有空数组的product结构体\n    function createProduct(string memory _UUID) public returns (string memory){\n        require(\n            keccak256(abi.encodePacked(_UUID)) != keccak256(abi.encodePacked(\"\")),\n            \"Please enter a UUID.\"\n        );\n\n        string[] memory new_chain;\n        productChain[_UUID] = Product(true, true, new_chain);\n\n        return \"Product create successfully!\";\n    }\n\n    //传UUID和最新Block的md5值，更新产业链信息\n    function updateChain(string memory _UUID, string memory description) public returns (string memory){\n        //检查UUID是否为空\n        require(\n            keccak256(abi.encodePacked(_UUID)) != keccak256(abi.encodePacked(\"\")),\n            \"Please enter a UUID.\"\n        );\n\n        //检查description是否为空\n        require(\n            keccak256(abi.encodePacked(description)) != keccak256(abi.encodePacked(\"\")),\n            \"Please enter a valid description.\"\n        );\n\n        //检查mapping中是否有该Key\n        require(\n            productChain[_UUID].exist,\n            \"Please enter a valid UUID.\"\n        );\n\n        //如果是刚被创建的商品，数组还是空的情况\n        if(productChain[_UUID].isNull){\n            productChain[_UUID].isNull = false;\n            string[] memory new_chain = new string[](1);\n            new_chain[0] = description;\n            productChain[_UUID].chain = new_chain;\n        }else{\n            string[] memory pre_chain = getChain(_UUID);\n            string[] memory new_chain = new string[](pre_chain.length+1);\n\n            for (uint i = 0; i <= pre_chain.length; i++){\n                if(i <= pre_chain.length-1){\n                    new_chain[i] = pre_chain[i];\n                } else{\n                    new_chain[i] = description;\n                }\n            }\n\n            productChain[_UUID].chain = new_chain;\n        }\n\n        return \"Product chain update successfully!\";\n    }\n\n    //得到某个UUID对应商品的整体链信息\n    function getChain(string memory _UUID) public view returns (string[] memory){\n        //检查UUID是否为空\n        require(\n            keccak256(abi.encodePacked(_UUID)) != keccak256(abi.encodePacked(\"\")),\n            \"Please enter a UUID.\"\n        );\n\n        //检查mapping中是否有该Key\n        require(\n            productChain[_UUID].exist,\n            \"Please enter a valid UUID.\"\n        );\n\n        //检查该商品产业链是否为空\n        require(\n            !productChain[_UUID].isNull,\n            \"This product does not have any industry chain information.\"\n        );\n\n        string[] memory full_chain = productChain[_UUID].chain;\n        return full_chain;\n    }\n\n    //传UUID得最后一个块的md5校验\n    function getLastBlock(string memory _UUID) public view returns (string memory){\n        //检查UUID是否为空\n        require(\n            keccak256(abi.encodePacked(_UUID)) != keccak256(abi.encodePacked(\"\")),\n            \"Please enter a UUID.\"\n        );\n\n        //检查mapping中是否有该Key\n        require(\n            productChain[_UUID].exist,\n            \"Please enter a valid UUID.\"\n        );\n\n        //检查该商品产业链是否为空\n        require(\n            !productChain[_UUID].isNull,\n            \"This product does not have any industry chain information.\"\n        );\n\n        string[] memory full_chain = productChain[_UUID].chain;\n        string memory lastBlock = full_chain[full_chain.length-1];\n        return lastBlock;\n    }\n}\n\n// contract Product{\n\n//     bytes32 description;\n//     bytes32 UUID; //由js生成直接传进来\n//     supplyBlock[] supplyChain;\n\n//     constructor(bytes32 _description, bytes32 _UUID) public{\n//         require(\n//             _description != \"\",\n//             \"Please enter a valid description.\"\n//         );\n\n//         require(\n//             _UUID != \"\",\n//             \"Please enter a valid UUID.\"\n//         );\n\n//         description = _description;\n//         UUID = _UUID;\n//         // UUID = bytes32(keccak256(abi.encode(msg.sender, block.timestamp)));\n//     }\n\n//     // event renewChain(\n//     //     bytes32[] suppliers,\n//     //     bytes32[] times,\n//     //     bytes32[] descriptions\n//     // );\n\n//     function addBlock(bytes32 _name, bytes32 _time, bytes32 _description) public {\n//         supplyBlock newBlock = new supplyBlock(_name, _time, _description);\n//         supplyChain.push(newBlock);\n\n//         bytes32[] memory suppliers;\n//         bytes32[] memory times;\n//         bytes32[] memory descriptions;\n\n//         for (uint i = 0; i <= supplyChain.length; i++){\n//             suppliers[i] = supplyChain[i].getSupplierName();\n//             times[i] = supplyChain[i].getTime();\n//             descriptions[i] = supplyChain[i].getDescription();\n//         }\n\n//         Main main = new Main();\n//         main.updateChain(UUID, suppliers, times, descriptions);\n\n//         // emit renewChain(suppliers, times, descriptions);\n//     }\n\n//     function getUUID() public view returns (bytes32){\n//         return UUID;\n//     }\n\n//     // function getChain() public view returns(bytes32[] memory, bytes32[] memory, bytes32[] memory){\n//     //     bytes32[] memory suppliers;\n//     //     bytes32[] memory times;\n//     //     bytes32[] memory descriptions;\n\n//     //     for (uint i = 0; i <= supplyChain.length; i++){\n//     //         suppliers[i] = supplyChain[i].getSupplierName();\n//     //         times[i] = supplyChain[i].getTime();\n//     //         descriptions[i] = supplyChain[i].getDescription();\n//     //     }\n\n//     //     return (suppliers,times,descriptions);\n\n//     // }\n// }\n\n\n// // 每次ADD Block前先实例化一个supplyBlock再调用add方法\n// contract supplyBlock{\n//     address supplier_address;\n//     bytes32 supplier_name;//商家登录后，从数据库中直接读取\n//     bytes32 time;//solidity没法获取当前时间，需要js提供。\n//     bytes32 description;\n\n//     constructor(bytes32 _supplier_name, bytes32 _time, bytes32 _description) public{\n//         require(\n//             _supplier_name != \"\",\n//             \"Please enter a valid supplier name.\"\n//         );\n\n//         require(\n//             _time != \"\",\n//             \"Please enter a valid time.\"\n//         );\n\n//         require(\n//             _description != \"\",\n//             \"Please enter a valid description.\"\n//         );\n\n//         supplier_address = msg.sender;\n//         supplier_name = _supplier_name;\n//         time = _time;\n//         description = _description;\n//     }\n\n//     function getSupplierAdd() public view returns(address){\n//         return supplier_address;\n//     }\n\n//     function getSupplierName() public view returns(bytes32){\n//         return supplier_name;\n//     }\n\n//     function getTime() public view returns(bytes32){\n//         return time;\n//     }\n\n//     function getDescription() public view returns(bytes32){\n//         return description;\n//     }\n\n// }",
  "sourcePath": "/Users/samara/Desktop/project_1/COMP90055/contracts/Product.sol",
  "compiler": {
    "name": "solc",
    "version": "0.6.4+commit.1dca32f3.Emscripten.clang"
  },
  "schemaVersion": "3.1.0",
  "updatedAt": "2020-06-09T11:17:50.188Z",
  "networkType": "ethereum",
  "devdoc": {
    "methods": {}
  },
  "userdoc": {
    "methods": {}
  }
}