{
  "contractName": "Main",
  "abi": [
    {
      "inputs": [
        {
          "internalType": "bytes32",
          "name": "",
          "type": "bytes32"
        },
        {
          "internalType": "uint256",
          "name": "",
          "type": "uint256"
        },
        {
          "internalType": "uint256",
          "name": "",
          "type": "uint256"
        }
      ],
      "name": "productChain",
      "outputs": [
        {
          "internalType": "bytes32",
          "name": "",
          "type": "bytes32"
        }
      ],
      "stateMutability": "view",
      "type": "function",
      "constant": true
    },
    {
      "inputs": [
        {
          "internalType": "bytes32",
          "name": "UUID",
          "type": "bytes32"
        },
        {
          "internalType": "bytes32[]",
          "name": "suppliers",
          "type": "bytes32[]"
        },
        {
          "internalType": "bytes32[]",
          "name": "times",
          "type": "bytes32[]"
        },
        {
          "internalType": "bytes32[]",
          "name": "descriptions",
          "type": "bytes32[]"
        }
      ],
      "name": "updateChain",
      "outputs": [],
      "stateMutability": "nonpayable",
      "type": "function"
    },
    {
      "inputs": [
        {
          "internalType": "bytes32",
          "name": "UUID",
          "type": "bytes32"
        }
      ],
      "name": "getChain",
      "outputs": [
        {
          "internalType": "bytes32[][3]",
          "name": "",
          "type": "bytes32[][3]"
        }
      ],
      "stateMutability": "view",
      "type": "function",
      "constant": true
    }
  ],
  "bytecode": "0x608060405234801561001057600080fd5b50610792806100206000396000f3fe608060405234801561001057600080fd5b50600436106100415760003560e01c80635f9d9f511461004657806374f06821146100765780638052494d14610092575b600080fd5b610060600480360381019061005b91906104b6565b6100c2565b60405161006d9190610644565b60405180910390f35b610090600480360381019061008b919061040b565b6100fd565b005b6100ac60048036038101906100a791906103e2565b61014b565b6040516100b99190610622565b60405180910390f35b600060205282600052604060002082600381106100db57fe5b0181815481106100e757fe5b9060005260206000200160009250925050505481565b6101056101fc565b604051806060016040528085815260200184815260200183815250905080600080878152602001908152602001600020906003610143929190610223565b505050505050565b6101536101fc565b61015b6101fc565b600080848152602001908152602001600020600380602002604051908101604052809291906000905b828210156101ed578382018054806020026020016040519081016040528092919081815260200182805480156101d957602002820191906000526020600020905b8154815260200190600101908083116101c5575b505050505081526020019060010190610184565b50505050905080915050919050565b60405180606001604052806003905b606081526020019060019003908161020b5790505090565b8260038101928215610265579160200282015b82811115610264578251829080519060200190610254929190610276565b5091602001919060010190610236565b5b50905061027291906102c3565b5090565b8280548282559060005260206000209081019282156102b2579160200282015b828111156102b1578251825591602001919060010190610296565b5b5090506102bf91906102ef565b5090565b6102ec91905b808211156102e857600081816102df9190610314565b506001016102c9565b5090565b90565b61031191905b8082111561030d5760008160009055506001016102f5565b5090565b90565b508054600082559060005260206000209081019061033291906102ef565b50565b600082601f83011261034657600080fd5b81356103596103548261068c565b61065f565b9150818183526020840193506020810190508385602084028201111561037e57600080fd5b60005b838110156103ae578161039488826103b8565b845260208401935060208301925050600181019050610381565b5050505092915050565b6000813590506103c78161072e565b92915050565b6000813590506103dc81610745565b92915050565b6000602082840312156103f457600080fd5b6000610402848285016103b8565b91505092915050565b6000806000806080858703121561042157600080fd5b600061042f878288016103b8565b945050602085013567ffffffffffffffff81111561044c57600080fd5b61045887828801610335565b935050604085013567ffffffffffffffff81111561047557600080fd5b61048187828801610335565b925050606085013567ffffffffffffffff81111561049e57600080fd5b6104aa87828801610335565b91505092959194509250565b6000806000606084860312156104cb57600080fd5b60006104d9868287016103b8565b93505060206104ea868287016103cd565b92505060406104fb868287016103cd565b9150509250925092565b600061051183836105a6565b905092915050565b60006105258383610604565b60208301905092915050565b600061053c826106ce565b61054681856106fe565b935083602082028501610558856106b4565b8060005b8581101561059457848403895281516105758582610505565b9450610580836106e4565b925060208a0199505060018101905061055c565b50829750879550505050505092915050565b60006105b1826106d9565b6105bb8185610709565b93506105c6836106be565b8060005b838110156105f75781516105de8882610519565b97506105e9836106f1565b9250506001810190506105ca565b5085935050505092915050565b61060d8161071a565b82525050565b61061c8161071a565b82525050565b6000602082019050818103600083015261063c8184610531565b905092915050565b60006020820190506106596000830184610613565b92915050565b6000604051905081810181811067ffffffffffffffff8211171561068257600080fd5b8060405250919050565b600067ffffffffffffffff8211156106a357600080fd5b602082029050602081019050919050565b6000819050919050565b6000819050602082019050919050565b600060039050919050565b600081519050919050565b6000602082019050919050565b6000602082019050919050565b600081905092915050565b600082825260208201905092915050565b6000819050919050565b6000819050919050565b6107378161071a565b811461074257600080fd5b50565b61074e81610724565b811461075957600080fd5b5056fea2646970667358221220e0aef2bb9fc5d327214b1fe0a569a010cc3e439e6a1896920c43c15d2fdd47ba64736f6c63430006040033",
  "source": "pragma solidity ^0.6.4;\npragma experimental ABIEncoderV2;\n\ncontract Main{\n\n    mapping(bytes32 => bytes32[][3]) public productChain; //将UUID映射到二维数组\n\n    function updateChain(bytes32 UUID, bytes32[] memory suppliers, bytes32[] memory times, bytes32[] memory descriptions) public{\n        bytes32[][3] memory chain = [suppliers, times, descriptions];\n        productChain[UUID] = chain;\n    }\n\n    function getChain(bytes32 UUID) public view returns (bytes32[][3] memory){\n        bytes32[][3] memory chain = productChain[UUID];\n        return chain;\n    }\n}\n\ncontract Product{\n\n    bytes32 name;\n    bytes32 description;\n    supplyBlock[] supplyChain;\n    bytes32 UUID; //由js生成直接传进来\n\n    constructor(bytes32 _name, bytes32 _description, bytes32 _UUID) public{\n        require(\n            _name != \"\",\n            \"Please enter a valid name.\"\n        );\n\n        require(\n            _description != \"\",\n            \"Please enter a valid description.\"\n        );\n\n        require(\n            _UUID != \"\",\n            \"Please enter a valid UUID.\"\n        );\n\n        name = _name;\n        description = _description;\n        UUID = _UUID;\n        // UUID = bytes32(keccak256(abi.encode(msg.sender, block.timestamp)));\n    }\n\n    // event renewChain(\n    //     bytes32[] suppliers,\n    //     bytes32[] times,\n    //     bytes32[] descriptions\n    // );\n\n    function addBlock(bytes32 _name, bytes32 _time,bytes32 _description) public {\n        supplyBlock newBlock = new supplyBlock(_name, _time, _description);\n        supplyChain.push(newBlock);\n\n        bytes32[] memory suppliers;\n        bytes32[] memory times;\n        bytes32[] memory descriptions;\n\n        for (uint i = 0; i <= supplyChain.length; i++){\n            suppliers[i] = supplyChain[i].getSupplierName();\n            times[i] = supplyChain[i].getTime();\n            descriptions[i] = supplyChain[i].getDescription();\n        }\n\n        Main main = new Main();\n        main.updateChain(UUID, suppliers, times, descriptions);\n\n        // emit renewChain(suppliers, times, descriptions);\n    }\n\n    function getUUID() public view returns (bytes32){\n        return UUID;\n    }\n\n    // function getChain() public view returns(bytes32[] memory, bytes32[] memory, bytes32[] memory){\n    //     bytes32[] memory suppliers;\n    //     bytes32[] memory times;\n    //     bytes32[] memory descriptions;\n\n    //     for (uint i = 0; i <= supplyChain.length; i++){\n    //         suppliers[i] = supplyChain[i].getSupplierName();\n    //         times[i] = supplyChain[i].getTime();\n    //         descriptions[i] = supplyChain[i].getDescription();\n    //     }\n\n    //     return (suppliers,times,descriptions);\n\n    // }\n}\n\n\n// 每次ADD Block前先实例化一个supplyBlock再调用add方法\ncontract supplyBlock{\n    address supplier_address;\n    bytes32 supplier_name;//商家登录后，从数据库中直接读取\n    bytes32 time;//solidity没法获取当前时间，需要js提供。\n    bytes32 description;\n\n    constructor(bytes32 _supplier_name, bytes32 _time, bytes32 _description) public{\n        require(\n            _supplier_name != \"\",\n            \"Please enter a valid supplier name.\"\n        );\n\n        require(\n            _time != \"\",\n            \"Please enter a valid time.\"\n        );\n\n        require(\n            _description != \"\",\n            \"Please enter a valid description.\"\n        );\n\n        supplier_address = msg.sender;\n        supplier_name = _supplier_name;\n        time = _time;\n        description = _description;\n    }\n\n    function getSupplierAdd() public view returns(address){\n        return supplier_address;\n    }\n\n    function getSupplierName() public view returns(bytes32){\n        return supplier_name;\n    }\n\n    function getTime() public view returns(bytes32){\n        return time;\n    }\n\n    function getDescription() public view returns(bytes32){\n        return description;\n    }\n\n}",
  "sourcePath": "/Users/xinkailuo/project/COMP90055/contracts/Product.sol",
  "compiler": {
    "name": "solc",
    "version": "0.6.4+commit.1dca32f3.Emscripten.clang"
  },
  "schemaVersion": "3.1.0",
  "updatedAt": "2020-05-09T08:34:01.387Z",
  "networkType": "ethereum",
  "devdoc": {
    "methods": {}
  },
  "userdoc": {
    "methods": {}
  }
}