{
  "contractName": "Main",
  "abi": [
    {
      "inputs": [
        {
          "internalType": "bytes",
          "name": "",
          "type": "bytes"
        },
        {
          "internalType": "uint256",
          "name": "",
          "type": "uint256"
        }
      ],
      "name": "productChain",
      "outputs": [
        {
          "internalType": "bytes",
          "name": "",
          "type": "bytes"
        }
      ],
      "stateMutability": "view",
      "type": "function",
      "constant": true
    },
    {
      "inputs": [
        {
          "internalType": "bytes",
          "name": "_UUID",
          "type": "bytes"
        }
      ],
      "name": "createProduct",
      "outputs": [
        {
          "internalType": "bytes",
          "name": "",
          "type": "bytes"
        }
      ],
      "stateMutability": "nonpayable",
      "type": "function"
    },
    {
      "inputs": [
        {
          "internalType": "bytes",
          "name": "_UUID",
          "type": "bytes"
        },
        {
          "internalType": "bytes",
          "name": "description",
          "type": "bytes"
        }
      ],
      "name": "updateChain",
      "outputs": [
        {
          "internalType": "bytes",
          "name": "",
          "type": "bytes"
        }
      ],
      "stateMutability": "nonpayable",
      "type": "function"
    },
    {
      "inputs": [
        {
          "internalType": "bytes",
          "name": "UUID",
          "type": "bytes"
        }
      ],
      "name": "getChain",
      "outputs": [
        {
          "internalType": "bytes[]",
          "name": "",
          "type": "bytes[]"
        }
      ],
      "stateMutability": "view",
      "type": "function",
      "constant": true
    },
    {
      "inputs": [
        {
          "internalType": "bytes",
          "name": "UUID",
          "type": "bytes"
        }
      ],
      "name": "getLastBlock",
      "outputs": [
        {
          "internalType": "bytes",
          "name": "",
          "type": "bytes"
        }
      ],
      "stateMutability": "view",
      "type": "function",
      "constant": true
    }
  ],
  "bytecode": "0x608060405234801561001057600080fd5b50610f00806100206000396000f3fe608060405234801561001057600080fd5b50600436106100575760003560e01c806314a7f7551461005c5780631c7231411461008c57806341bb9136146100bc578063a5e9b893146100ec578063ce8ba29c1461011c575b600080fd5b61007660048036038101906100719190610960565b61014c565b6040516100839190610cb5565b60405180910390f35b6100a660048036038101906100a1919061091f565b610306565b6040516100b39190610c71565b60405180910390f35b6100d660048036038101906100d191906109cc565b610412565b6040516100e39190610c93565b60405180910390f35b6101066004803603810190610101919061091f565b6104ee565b6040516101139190610cb5565b60405180910390f35b6101366004803603810190610131919061091f565b610617565b6040516101439190610cb5565b60405180910390f35b606060405161015a90610c5c565b6040518091039020838051906020012014156101ab576040517f08c379a00000000000000000000000000000000000000000000000000000000081526004016101a290610cd7565b60405180910390fd5b6040516101b790610c5c565b604051809103902082805190602001201415610208576040517f08c379a00000000000000000000000000000000000000000000000000000000081526004016101ff90610cf7565b60405180910390fd5b606061021384610306565b9050606060008251141561023f57838160008151811061022f57fe5b60200260200101819052506102b0565b60008090505b825181116102ae57600183510381116102885782818151811061026457fe5b602002602001015182828151811061027857fe5b60200260200101819052506102a1565b8482828151811061029557fe5b60200260200101819052505b8080600101915050610245565b505b806000866040516102c19190610c45565b908152602001604051809103902090805190602001906102e29291906106e9565b50604051806060016040528060228152602001610ea9602291399250505092915050565b6060806000836040516103199190610c45565b9081526020016040518091039020805480602002602001604051908101604052809291908181526020016000905b82821015610403578382906000526020600020018054600181600116156101000203166002900480601f0160208091040260200160405190810160405280929190818152602001828054600181600116156101000203166002900480156103ef5780601f106103c4576101008083540402835291602001916103ef565b820191906000526020600020905b8154815290600101906020018083116103d257829003601f168201915b505050505081526020019060010190610347565b50505050905080915050919050565b600082805160208101820180518482526020830160208501208183528095505050505050818154811061044157fe5b90600052602060002001600091509150508054600181600116156101000203166002900480601f0160208091040260200160405190810160405280929190818152602001828054600181600116156101000203166002900480156104e65780601f106104bb576101008083540402835291602001916104e6565b820191906000526020600020905b8154815290600101906020018083116104c957829003601f168201915b505050505081565b6060806000836040516105019190610c45565b9081526020016040518091039020805480602002602001604051908101604052809291908181526020016000905b828210156105eb578382906000526020600020018054600181600116156101000203166002900480601f0160208091040260200160405190810160405280929190818152602001828054600181600116156101000203166002900480156105d75780601f106105ac576101008083540402835291602001916105d7565b820191906000526020600020905b8154815290600101906020018083116105ba57829003601f168201915b50505050508152602001906001019061052f565b50505050905060608160018351038151811061060357fe5b602002602001015190508092505050919050565b606060405161062590610c5c565b604051809103902082805190602001201415610676576040517f08c379a000000000000000000000000000000000000000000000000000000000815260040161066d90610cd7565b60405180910390fd5b6060806000846040516106899190610c45565b908152602001604051809103902090805190602001906106aa9291906106e9565b506040518060400160405280601c81526020017f50726f6475637420637265617465207375636365737366756c6c792100000000815250915050919050565b828054828255906000526020600020908101928215610738579160200282015b82811115610737578251829080519060200190610727929190610749565b5091602001919060010190610709565b5b50905061074591906107c9565b5090565b828054600181600116156101000203166002900490600052602060002090601f016020900481019282601f1061078a57805160ff19168380011785556107b8565b828001600101855582156107b8579182015b828111156107b757825182559160200191906001019061079c565b5b5090506107c591906107f5565b5090565b6107f291905b808211156107ee57600081816107e5919061081a565b506001016107cf565b5090565b90565b61081791905b808211156108135760008160009055506001016107fb565b5090565b90565b50805460018160011615610100020316600290046000825580601f10610840575061085f565b601f01602090049060005260206000209081019061085e91906107f5565b5b50565b600082601f83011261087357600080fd5b813561088661088182610d44565b610d17565b915080825260208301602083018583830111156108a257600080fd5b6108ad838284610e3e565b50505092915050565b600082601f8301126108c757600080fd5b81356108da6108d582610d70565b610d17565b915080825260208301602083018583830111156108f657600080fd5b610901838284610e3e565b50505092915050565b60008135905061091981610e91565b92915050565b60006020828403121561093157600080fd5b600082013567ffffffffffffffff81111561094b57600080fd5b610957848285016108b6565b91505092915050565b6000806040838503121561097357600080fd5b600083013567ffffffffffffffff81111561098d57600080fd5b610999858286016108b6565b925050602083013567ffffffffffffffff8111156109b657600080fd5b6109c2858286016108b6565b9150509250929050565b600080604083850312156109df57600080fd5b600083013567ffffffffffffffff8111156109f957600080fd5b610a0585828601610862565b9250506020610a168582860161090a565b9150509250929050565b6000610a2c8383610b13565b905092915050565b6000610a3f82610dac565b610a498185610dda565b935083602082028501610a5b85610d9c565b8060005b85811015610a975784840389528151610a788582610a20565b9450610a8383610dcd565b925060208a01995050600181019050610a5f565b50829750879550505050505092915050565b6000610ab482610dc2565b610abe8185610dfc565b9350610ace818560208601610e4d565b610ad781610e80565b840191505092915050565b6000610aed82610dc2565b610af78185610e0d565b9350610b07818560208601610e4d565b80840191505092915050565b6000610b1e82610db7565b610b288185610deb565b9350610b38818560208601610e4d565b610b4181610e80565b840191505092915050565b6000610b5782610db7565b610b618185610dfc565b9350610b71818560208601610e4d565b610b7a81610e80565b840191505092915050565b6000610b92601a83610e18565b91507f506c6561736520656e74657220612076616c696420555549442e0000000000006000830152602082019050919050565b6000610bd2600083610e29565b9150600082019050919050565b6000610bec602183610e18565b91507f506c6561736520656e74657220612076616c6964206465736372697074696f6e60008301527f2e000000000000000000000000000000000000000000000000000000000000006020830152604082019050919050565b6000610c518284610ae2565b915081905092915050565b6000610c6782610bc5565b9150819050919050565b60006020820190508181036000830152610c8b8184610a34565b905092915050565b60006020820190508181036000830152610cad8184610b4c565b905092915050565b60006020820190508181036000830152610ccf8184610aa9565b905092915050565b60006020820190508181036000830152610cf081610b85565b9050919050565b60006020820190508181036000830152610d1081610bdf565b9050919050565b6000604051905081810181811067ffffffffffffffff82111715610d3a57600080fd5b8060405250919050565b600067ffffffffffffffff821115610d5b57600080fd5b601f19601f8301169050602081019050919050565b600067ffffffffffffffff821115610d8757600080fd5b601f19601f8301169050602081019050919050565b6000819050602082019050919050565b600081519050919050565b600081519050919050565b600081519050919050565b6000602082019050919050565b600082825260208201905092915050565b600082825260208201905092915050565b600082825260208201905092915050565b600081905092915050565b600082825260208201905092915050565b600081905092915050565b6000819050919050565b82818337600083830152505050565b60005b83811015610e6b578082015181840152602081019050610e50565b83811115610e7a576000848401525b50505050565b6000601f19601f8301169050919050565b610e9a81610e34565b8114610ea557600080fd5b5056fe50726f6475637420636861696e20757064617465207375636365737366756c6c7921a2646970667358221220b10dbac7671f883ab7b589659e8a23c58497fd80030e937f78a11f6288c11ba664736f6c63430006040033",
  "source": "pragma solidity ^0.6.4;\npragma experimental ABIEncoderV2;\n\ncontract Main{\n\n    mapping(bytes => bytes[]) public productChain; //将UUID映射到md5数组\n\n    //创建新商品时调用，映射为一个空数组\n    function createProduct(bytes memory _UUID) public returns (bytes memory){\n        require(\n            keccak256(_UUID) != keccak256(\"\"),\n            \"Please enter a valid UUID.\"\n        );\n\n        bytes[] memory new_chain;\n        productChain[_UUID] = new_chain;\n\n        return \"Product create successfully!\";\n    }\n\n    //传UUID和最新Block的md5值，更新产业链信息\n    function updateChain(bytes memory _UUID, bytes memory description) public returns (bytes memory){\n        require(\n            keccak256(_UUID) != keccak256(\"\"),\n            \"Please enter a valid UUID.\"\n        );\n\n        require(\n            keccak256(description) != keccak256(\"\"),\n            \"Please enter a valid description.\"\n        );\n\n        bytes[] memory pre_chain = getChain(_UUID);\n        bytes[] memory new_chain;\n\n        if (pre_chain.length == 0){\n            new_chain[0] = description;\n        } else{\n            for (uint i = 0; i <= pre_chain.length; i++){\n                if(i <= pre_chain.length-1){\n                    new_chain[i] = pre_chain[i];\n                } else{\n                    new_chain[i] = description;\n                }\n            }\n        }\n\n        productChain[_UUID] = new_chain;\n        return \"Product chain update successfully!\";\n    }\n\n    //得到某个UUID对应商品的整体链信息\n    function getChain(bytes memory UUID) public view returns (bytes[] memory){\n        bytes[] memory chain = productChain[UUID];\n        return chain;\n    }\n\n    //传UUID得最后一个块的md5校验\n    function getLastBlock(bytes memory UUID) public view returns (bytes memory){\n        bytes[] memory chain = productChain[UUID];\n        bytes memory lastBlock = chain[chain.length-1];\n        return lastBlock;\n    }\n}\n\n// contract Product{\n\n//     bytes32 description;\n//     bytes32 UUID; //由js生成直接传进来\n//     supplyBlock[] supplyChain;\n\n//     constructor(bytes32 _description, bytes32 _UUID) public{\n//         require(\n//             _description != \"\",\n//             \"Please enter a valid description.\"\n//         );\n\n//         require(\n//             _UUID != \"\",\n//             \"Please enter a valid UUID.\"\n//         );\n\n//         description = _description;\n//         UUID = _UUID;\n//         // UUID = bytes32(keccak256(abi.encode(msg.sender, block.timestamp)));\n//     }\n\n//     // event renewChain(\n//     //     bytes32[] suppliers,\n//     //     bytes32[] times,\n//     //     bytes32[] descriptions\n//     // );\n\n//     function addBlock(bytes32 _name, bytes32 _time, bytes32 _description) public {\n//         supplyBlock newBlock = new supplyBlock(_name, _time, _description);\n//         supplyChain.push(newBlock);\n\n//         bytes32[] memory suppliers;\n//         bytes32[] memory times;\n//         bytes32[] memory descriptions;\n\n//         for (uint i = 0; i <= supplyChain.length; i++){\n//             suppliers[i] = supplyChain[i].getSupplierName();\n//             times[i] = supplyChain[i].getTime();\n//             descriptions[i] = supplyChain[i].getDescription();\n//         }\n\n//         Main main = new Main();\n//         main.updateChain(UUID, suppliers, times, descriptions);\n\n//         // emit renewChain(suppliers, times, descriptions);\n//     }\n\n//     function getUUID() public view returns (bytes32){\n//         return UUID;\n//     }\n\n//     // function getChain() public view returns(bytes32[] memory, bytes32[] memory, bytes32[] memory){\n//     //     bytes32[] memory suppliers;\n//     //     bytes32[] memory times;\n//     //     bytes32[] memory descriptions;\n\n//     //     for (uint i = 0; i <= supplyChain.length; i++){\n//     //         suppliers[i] = supplyChain[i].getSupplierName();\n//     //         times[i] = supplyChain[i].getTime();\n//     //         descriptions[i] = supplyChain[i].getDescription();\n//     //     }\n\n//     //     return (suppliers,times,descriptions);\n\n//     // }\n// }\n\n\n// // 每次ADD Block前先实例化一个supplyBlock再调用add方法\n// contract supplyBlock{\n//     address supplier_address;\n//     bytes32 supplier_name;//商家登录后，从数据库中直接读取\n//     bytes32 time;//solidity没法获取当前时间，需要js提供。\n//     bytes32 description;\n\n//     constructor(bytes32 _supplier_name, bytes32 _time, bytes32 _description) public{\n//         require(\n//             _supplier_name != \"\",\n//             \"Please enter a valid supplier name.\"\n//         );\n\n//         require(\n//             _time != \"\",\n//             \"Please enter a valid time.\"\n//         );\n\n//         require(\n//             _description != \"\",\n//             \"Please enter a valid description.\"\n//         );\n\n//         supplier_address = msg.sender;\n//         supplier_name = _supplier_name;\n//         time = _time;\n//         description = _description;\n//     }\n\n//     function getSupplierAdd() public view returns(address){\n//         return supplier_address;\n//     }\n\n//     function getSupplierName() public view returns(bytes32){\n//         return supplier_name;\n//     }\n\n//     function getTime() public view returns(bytes32){\n//         return time;\n//     }\n\n//     function getDescription() public view returns(bytes32){\n//         return description;\n//     }\n\n// }",
  "sourcePath": "/Users/samara/Desktop/project_1/COMP90055/contracts/Product.sol",
  "compiler": {
    "name": "solc",
    "version": "0.6.4+commit.1dca32f3.Emscripten.clang"
  },
  "schemaVersion": "3.1.0",
  "updatedAt": "2020-05-13T13:48:18.792Z",
  "networkType": "ethereum",
  "devdoc": {
    "methods": {}
  },
  "userdoc": {
    "methods": {}
  }
}