{
  "contractName": "Product",
  "abi": [
    {
      "inputs": [
        {
          "internalType": "bytes32",
          "name": "_name",
          "type": "bytes32"
        },
        {
          "internalType": "bytes32",
          "name": "_description",
          "type": "bytes32"
        },
        {
          "internalType": "bytes32",
          "name": "_UUID",
          "type": "bytes32"
        }
      ],
      "stateMutability": "nonpayable",
      "type": "constructor"
    },
    {
      "inputs": [
        {
          "internalType": "bytes32",
          "name": "_name",
          "type": "bytes32"
        },
        {
          "internalType": "bytes32",
          "name": "_time",
          "type": "bytes32"
        },
        {
          "internalType": "bytes32",
          "name": "_description",
          "type": "bytes32"
        }
      ],
      "name": "addBlock",
      "outputs": [],
      "stateMutability": "nonpayable",
      "type": "function"
    },
    {
      "inputs": [],
      "name": "getUUID",
      "outputs": [
        {
          "internalType": "bytes32",
          "name": "",
          "type": "bytes32"
        }
      ],
      "stateMutability": "view",
      "type": "function",
      "constant": true
    }
  ],
  "bytecode": "0x60806040523480156200001157600080fd5b506040516200176338038062001763833981810160405281019062000037919062000141565b60008314156200007e576040517f08c379a0000000000000000000000000000000000000000000000000000000008152600401620000759062000283565b60405180910390fd5b6000821415620000c5576040517f08c379a0000000000000000000000000000000000000000000000000000000008152600401620000bc90620002c7565b60405180910390fd5b60008114156200010c576040517f08c379a00000000000000000000000000000000000000000000000000000000081526004016200010390620002a5565b60405180910390fd5b8260008190555081600181905550806003819055505050506200031e565b6000815190506200013b8162000304565b92915050565b6000806000606084860312156200015757600080fd5b600062000167868287016200012a565b93505060206200017a868287016200012a565b92505060406200018d868287016200012a565b9150509250925092565b6000620001a6601a83620002e9565b91507f506c6561736520656e74657220612076616c6964206e616d652e0000000000006000830152602082019050919050565b6000620001e8601a83620002e9565b91507f506c6561736520656e74657220612076616c696420555549442e0000000000006000830152602082019050919050565b60006200022a602183620002e9565b91507f506c6561736520656e74657220612076616c6964206465736372697074696f6e60008301527f2e000000000000000000000000000000000000000000000000000000000000006020830152604082019050919050565b600060208201905081810360008301526200029e8162000197565b9050919050565b60006020820190508181036000830152620002c081620001d9565b9050919050565b60006020820190508181036000830152620002e2816200021b565b9050919050565b600082825260208201905092915050565b6000819050919050565b6200030f81620002fa565b81146200031b57600080fd5b50565b611435806200032e6000396000f3fe60806040523480156200001157600080fd5b50600436106200003a5760003560e01c80634381b206146200003f578063773b6a16146200005f575b600080fd5b6200005d6004803603810190620000579190620004f6565b62000081565b005b6200006962000476565b604051620000789190620005f2565b60405180910390f35b6000838383604051620000949062000480565b620000a29392919062000671565b604051809103906000f080158015620000bf573d6000803e3d6000fd5b5090506002819080600181540180825580915050600190039060005260206000200160009091909190916101000a81548173ffffffffffffffffffffffffffffffffffffffff021916908373ffffffffffffffffffffffffffffffffffffffff160217905550606080606060008090505b6002805490508111620003c457600281815481106200014b57fe5b9060005260206000200160009054906101000a900473ffffffffffffffffffffffffffffffffffffffff1673ffffffffffffffffffffffffffffffffffffffff1663b83564cd6040518163ffffffff1660e01b815260040160206040518083038186803b158015620001bc57600080fd5b505afa158015620001d1573d6000803e3d6000fd5b505050506040513d601f19601f82011682018060405250810190620001f79190620004ca565b8482815181106200020457fe5b602002602001018181525050600281815481106200021e57fe5b9060005260206000200160009054906101000a900473ffffffffffffffffffffffffffffffffffffffff1673ffffffffffffffffffffffffffffffffffffffff1663557ed1ba6040518163ffffffff1660e01b815260040160206040518083038186803b1580156200028f57600080fd5b505afa158015620002a4573d6000803e3d6000fd5b505050506040513d601f19601f82011682018060405250810190620002ca9190620004ca565b838281518110620002d757fe5b60200260200101818152505060028181548110620002f157fe5b9060005260206000200160009054906101000a900473ffffffffffffffffffffffffffffffffffffffff1673ffffffffffffffffffffffffffffffffffffffff16631a0925416040518163ffffffff1660e01b815260040160206040518083038186803b1580156200036257600080fd5b505afa15801562000377573d6000803e3d6000fd5b505050506040513d601f19601f820116820180604052508101906200039d9190620004ca565b828281518110620003aa57fe5b602002602001018181525050808060010191505062000130565b506000604051620003d5906200048e565b604051809103906000f080158015620003f2573d6000803e3d6000fd5b5090508073ffffffffffffffffffffffffffffffffffffffff166374f068216003548686866040518563ffffffff1660e01b81526004016200043894939291906200060f565b600060405180830381600087803b1580156200045357600080fd5b505af115801562000468573d6000803e3d6000fd5b505050505050505050505050565b6000600354905090565b610542806200070c83390190565b6107b28062000c4e83390190565b600081359050620004ad81620006f1565b92915050565b600081519050620004c481620006f1565b92915050565b600060208284031215620004dd57600080fd5b6000620004ed84828501620004b3565b91505092915050565b6000806000606084860312156200050c57600080fd5b60006200051c868287016200049c565b93505060206200052f868287016200049c565b925050604062000542868287016200049c565b9150509250925092565b60006200055a8383620005d0565b60208301905092915050565b60006200057382620006be565b6200057f8185620006d6565b93506200058c83620006ae565b8060005b83811015620005c3578151620005a788826200054c565b9750620005b483620006c9565b92505060018101905062000590565b5085935050505092915050565b620005db81620006e7565b82525050565b620005ec81620006e7565b82525050565b6000602082019050620006096000830184620005e1565b92915050565b6000608082019050620006266000830187620005e1565b81810360208301526200063a818662000566565b9050818103604083015262000650818562000566565b9050818103606083015262000666818462000566565b905095945050505050565b6000606082019050620006886000830186620005e1565b620006976020830185620005e1565b620006a66040830184620005e1565b949350505050565b6000819050602082019050919050565b600081519050919050565b6000602082019050919050565b600082825260208201905092915050565b6000819050919050565b620006fc81620006e7565b81146200070857600080fd5b5056fe608060405234801561001057600080fd5b5060405161054238038061054283398181016040528101906100329190610170565b6000831415610076576040517f08c379a000000000000000000000000000000000000000000000000000000000815260040161006d906102cb565b60405180910390fd5b60008214156100ba576040517f08c379a00000000000000000000000000000000000000000000000000000000081526004016100b1906102eb565b60405180910390fd5b60008114156100fe576040517f08c379a00000000000000000000000000000000000000000000000000000000081526004016100f59061030b565b60405180910390fd5b336000806101000a81548173ffffffffffffffffffffffffffffffffffffffff021916908373ffffffffffffffffffffffffffffffffffffffff16021790555082600181905550816002819055508060038190555050505061035d565b60008151905061016a81610346565b92915050565b60008060006060848603121561018557600080fd5b60006101938682870161015b565b93505060206101a48682870161015b565b92505060406101b58682870161015b565b9150509250925092565b60006101cc60238361032b565b91507f506c6561736520656e74657220612076616c696420737570706c696572206e6160008301527f6d652e00000000000000000000000000000000000000000000000000000000006020830152604082019050919050565b6000610232601a8361032b565b91507f506c6561736520656e74657220612076616c69642074696d652e0000000000006000830152602082019050919050565b600061027260218361032b565b91507f506c6561736520656e74657220612076616c6964206465736372697074696f6e60008301527f2e000000000000000000000000000000000000000000000000000000000000006020830152604082019050919050565b600060208201905081810360008301526102e4816101bf565b9050919050565b6000602082019050818103600083015261030481610225565b9050919050565b6000602082019050818103600083015261032481610265565b9050919050565b600082825260208201905092915050565b6000819050919050565b61034f8161033c565b811461035a57600080fd5b50565b6101d68061036c6000396000f3fe608060405234801561001057600080fd5b506004361061004c5760003560e01c806311150982146100515780631a0925411461006f578063557ed1ba1461008d578063b83564cd146100ab575b600080fd5b6100596100c9565b604051610066919061012e565b60405180910390f35b6100776100f2565b6040516100849190610149565b60405180910390f35b6100956100fc565b6040516100a29190610149565b60405180910390f35b6100b3610106565b6040516100c09190610149565b60405180910390f35b60008060009054906101000a900473ffffffffffffffffffffffffffffffffffffffff16905090565b6000600354905090565b6000600254905090565b6000600154905090565b61011981610164565b82525050565b61012881610176565b82525050565b60006020820190506101436000830184610110565b92915050565b600060208201905061015e600083018461011f565b92915050565b600061016f82610180565b9050919050565b6000819050919050565b600073ffffffffffffffffffffffffffffffffffffffff8216905091905056fea2646970667358221220f7fbcea12a4f2618f42fef4c5b88ee88d808f7b209041a6a671b49a3651ef2c464736f6c63430006040033608060405234801561001057600080fd5b50610792806100206000396000f3fe608060405234801561001057600080fd5b50600436106100415760003560e01c80635f9d9f511461004657806374f06821146100765780638052494d14610092575b600080fd5b610060600480360381019061005b91906104b6565b6100c2565b60405161006d9190610644565b60405180910390f35b610090600480360381019061008b919061040b565b6100fd565b005b6100ac60048036038101906100a791906103e2565b61014b565b6040516100b99190610622565b60405180910390f35b600060205282600052604060002082600381106100db57fe5b0181815481106100e757fe5b9060005260206000200160009250925050505481565b6101056101fc565b604051806060016040528085815260200184815260200183815250905080600080878152602001908152602001600020906003610143929190610223565b505050505050565b6101536101fc565b61015b6101fc565b600080848152602001908152602001600020600380602002604051908101604052809291906000905b828210156101ed578382018054806020026020016040519081016040528092919081815260200182805480156101d957602002820191906000526020600020905b8154815260200190600101908083116101c5575b505050505081526020019060010190610184565b50505050905080915050919050565b60405180606001604052806003905b606081526020019060019003908161020b5790505090565b8260038101928215610265579160200282015b82811115610264578251829080519060200190610254929190610276565b5091602001919060010190610236565b5b50905061027291906102c3565b5090565b8280548282559060005260206000209081019282156102b2579160200282015b828111156102b1578251825591602001919060010190610296565b5b5090506102bf91906102ef565b5090565b6102ec91905b808211156102e857600081816102df9190610314565b506001016102c9565b5090565b90565b61031191905b8082111561030d5760008160009055506001016102f5565b5090565b90565b508054600082559060005260206000209081019061033291906102ef565b50565b600082601f83011261034657600080fd5b81356103596103548261068c565b61065f565b9150818183526020840193506020810190508385602084028201111561037e57600080fd5b60005b838110156103ae578161039488826103b8565b845260208401935060208301925050600181019050610381565b5050505092915050565b6000813590506103c78161072e565b92915050565b6000813590506103dc81610745565b92915050565b6000602082840312156103f457600080fd5b6000610402848285016103b8565b91505092915050565b6000806000806080858703121561042157600080fd5b600061042f878288016103b8565b945050602085013567ffffffffffffffff81111561044c57600080fd5b61045887828801610335565b935050604085013567ffffffffffffffff81111561047557600080fd5b61048187828801610335565b925050606085013567ffffffffffffffff81111561049e57600080fd5b6104aa87828801610335565b91505092959194509250565b6000806000606084860312156104cb57600080fd5b60006104d9868287016103b8565b93505060206104ea868287016103cd565b92505060406104fb868287016103cd565b9150509250925092565b600061051183836105a6565b905092915050565b60006105258383610604565b60208301905092915050565b600061053c826106ce565b61054681856106fe565b935083602082028501610558856106b4565b8060005b8581101561059457848403895281516105758582610505565b9450610580836106e4565b925060208a0199505060018101905061055c565b50829750879550505050505092915050565b60006105b1826106d9565b6105bb8185610709565b93506105c6836106be565b8060005b838110156105f75781516105de8882610519565b97506105e9836106f1565b9250506001810190506105ca565b5085935050505092915050565b61060d8161071a565b82525050565b61061c8161071a565b82525050565b6000602082019050818103600083015261063c8184610531565b905092915050565b60006020820190506106596000830184610613565b92915050565b6000604051905081810181811067ffffffffffffffff8211171561068257600080fd5b8060405250919050565b600067ffffffffffffffff8211156106a357600080fd5b602082029050602081019050919050565b6000819050919050565b6000819050602082019050919050565b600060039050919050565b600081519050919050565b6000602082019050919050565b6000602082019050919050565b600081905092915050565b600082825260208201905092915050565b6000819050919050565b6000819050919050565b6107378161071a565b811461074257600080fd5b50565b61074e81610724565b811461075957600080fd5b5056fea2646970667358221220e0aef2bb9fc5d327214b1fe0a569a010cc3e439e6a1896920c43c15d2fdd47ba64736f6c63430006040033a2646970667358221220ae3b1a99d4921f5a52fc722a72553c416b0a88b56f7102c643d4736c19599a6c64736f6c63430006040033",
  "source": "pragma solidity ^0.6.4;\npragma experimental ABIEncoderV2;\n\ncontract Main{\n\n    mapping(bytes32 => bytes32[][3]) public productChain; //将UUID映射到二维数组\n\n    function updateChain(bytes32 UUID, bytes32[] memory suppliers, bytes32[] memory times, bytes32[] memory descriptions) public{\n        bytes32[][3] memory chain = [suppliers, times, descriptions];\n        productChain[UUID] = chain;\n    }\n\n    function getChain(bytes32 UUID) public view returns (bytes32[][3] memory){\n        bytes32[][3] memory chain = productChain[UUID];\n        return chain;\n    }\n}\n\ncontract Product{\n\n    bytes32 name;\n    bytes32 description;\n    supplyBlock[] supplyChain;\n    bytes32 UUID; //由js生成直接传进来\n\n    constructor(bytes32 _name, bytes32 _description, bytes32 _UUID) public{\n        require(\n            _name != \"\",\n            \"Please enter a valid name.\"\n        );\n\n        require(\n            _description != \"\",\n            \"Please enter a valid description.\"\n        );\n\n        require(\n            _UUID != \"\",\n            \"Please enter a valid UUID.\"\n        );\n\n        name = _name;\n        description = _description;\n        UUID = _UUID;\n        // UUID = bytes32(keccak256(abi.encode(msg.sender, block.timestamp)));\n    }\n\n    // event renewChain(\n    //     bytes32[] suppliers,\n    //     bytes32[] times,\n    //     bytes32[] descriptions\n    // );\n\n    function addBlock(bytes32 _name, bytes32 _time,bytes32 _description) public {\n        supplyBlock newBlock = new supplyBlock(_name, _time, _description);\n        supplyChain.push(newBlock);\n\n        bytes32[] memory suppliers;\n        bytes32[] memory times;\n        bytes32[] memory descriptions;\n\n        for (uint i = 0; i <= supplyChain.length; i++){\n            suppliers[i] = supplyChain[i].getSupplierName();\n            times[i] = supplyChain[i].getTime();\n            descriptions[i] = supplyChain[i].getDescription();\n        }\n\n        Main main = new Main();\n        main.updateChain(UUID, suppliers, times, descriptions);\n\n        // emit renewChain(suppliers, times, descriptions);\n    }\n\n    function getUUID() public view returns (bytes32){\n        return UUID;\n    }\n\n    // function getChain() public view returns(bytes32[] memory, bytes32[] memory, bytes32[] memory){\n    //     bytes32[] memory suppliers;\n    //     bytes32[] memory times;\n    //     bytes32[] memory descriptions;\n\n    //     for (uint i = 0; i <= supplyChain.length; i++){\n    //         suppliers[i] = supplyChain[i].getSupplierName();\n    //         times[i] = supplyChain[i].getTime();\n    //         descriptions[i] = supplyChain[i].getDescription();\n    //     }\n\n    //     return (suppliers,times,descriptions);\n\n    // }\n}\n\n\n// 每次ADD Block前先实例化一个supplyBlock再调用add方法\ncontract supplyBlock{\n    address supplier_address;\n    bytes32 supplier_name;//商家登录后，从数据库中直接读取\n    bytes32 time;//solidity没法获取当前时间，需要js提供。\n    bytes32 description;\n\n    constructor(bytes32 _supplier_name, bytes32 _time, bytes32 _description) public{\n        require(\n            _supplier_name != \"\",\n            \"Please enter a valid supplier name.\"\n        );\n\n        require(\n            _time != \"\",\n            \"Please enter a valid time.\"\n        );\n\n        require(\n            _description != \"\",\n            \"Please enter a valid description.\"\n        );\n\n        supplier_address = msg.sender;\n        supplier_name = _supplier_name;\n        time = _time;\n        description = _description;\n    }\n\n    function getSupplierAdd() public view returns(address){\n        return supplier_address;\n    }\n\n    function getSupplierName() public view returns(bytes32){\n        return supplier_name;\n    }\n\n    function getTime() public view returns(bytes32){\n        return time;\n    }\n\n    function getDescription() public view returns(bytes32){\n        return description;\n    }\n\n}",
  "sourcePath": "/Users/xinkailuo/project/COMP90055/contracts/Product.sol",
  "compiler": {
    "name": "solc",
    "version": "0.6.4+commit.1dca32f3.Emscripten.clang"
  },
  "schemaVersion": "3.1.0",
  "updatedAt": "2020-05-09T08:34:01.373Z",
  "networkType": "ethereum",
  "devdoc": {
    "methods": {}
  },
  "userdoc": {
    "methods": {}
  }
}