{
  "contractName": "supplyBlock",
  "abi": [
    {
      "inputs": [
        {
          "internalType": "bytes32",
          "name": "_supplier_name",
          "type": "bytes32"
        },
        {
          "internalType": "bytes32",
          "name": "_time",
          "type": "bytes32"
        },
        {
          "internalType": "bytes32",
          "name": "_description",
          "type": "bytes32"
        }
      ],
      "stateMutability": "nonpayable",
      "type": "constructor"
    },
    {
      "inputs": [],
      "name": "getSupplierAdd",
      "outputs": [
        {
          "internalType": "address",
          "name": "",
          "type": "address"
        }
      ],
      "stateMutability": "view",
      "type": "function",
      "constant": true
    },
    {
      "inputs": [],
      "name": "getSupplierName",
      "outputs": [
        {
          "internalType": "bytes32",
          "name": "",
          "type": "bytes32"
        }
      ],
      "stateMutability": "view",
      "type": "function",
      "constant": true
    },
    {
      "inputs": [],
      "name": "getTime",
      "outputs": [
        {
          "internalType": "bytes32",
          "name": "",
          "type": "bytes32"
        }
      ],
      "stateMutability": "view",
      "type": "function",
      "constant": true
    },
    {
      "inputs": [],
      "name": "getDescription",
      "outputs": [
        {
          "internalType": "bytes32",
          "name": "",
          "type": "bytes32"
        }
      ],
      "stateMutability": "view",
      "type": "function",
      "constant": true
    }
  ],
  "bytecode": "0x608060405234801561001057600080fd5b5060405161054238038061054283398181016040528101906100329190610170565b6000831415610076576040517f08c379a000000000000000000000000000000000000000000000000000000000815260040161006d906102cb565b60405180910390fd5b60008214156100ba576040517f08c379a00000000000000000000000000000000000000000000000000000000081526004016100b1906102eb565b60405180910390fd5b60008114156100fe576040517f08c379a00000000000000000000000000000000000000000000000000000000081526004016100f59061030b565b60405180910390fd5b336000806101000a81548173ffffffffffffffffffffffffffffffffffffffff021916908373ffffffffffffffffffffffffffffffffffffffff16021790555082600181905550816002819055508060038190555050505061035d565b60008151905061016a81610346565b92915050565b60008060006060848603121561018557600080fd5b60006101938682870161015b565b93505060206101a48682870161015b565b92505060406101b58682870161015b565b9150509250925092565b60006101cc60238361032b565b91507f506c6561736520656e74657220612076616c696420737570706c696572206e6160008301527f6d652e00000000000000000000000000000000000000000000000000000000006020830152604082019050919050565b6000610232601a8361032b565b91507f506c6561736520656e74657220612076616c69642074696d652e0000000000006000830152602082019050919050565b600061027260218361032b565b91507f506c6561736520656e74657220612076616c6964206465736372697074696f6e60008301527f2e000000000000000000000000000000000000000000000000000000000000006020830152604082019050919050565b600060208201905081810360008301526102e4816101bf565b9050919050565b6000602082019050818103600083015261030481610225565b9050919050565b6000602082019050818103600083015261032481610265565b9050919050565b600082825260208201905092915050565b6000819050919050565b61034f8161033c565b811461035a57600080fd5b50565b6101d68061036c6000396000f3fe608060405234801561001057600080fd5b506004361061004c5760003560e01c806311150982146100515780631a0925411461006f578063557ed1ba1461008d578063b83564cd146100ab575b600080fd5b6100596100c9565b604051610066919061012e565b60405180910390f35b6100776100f2565b6040516100849190610149565b60405180910390f35b6100956100fc565b6040516100a29190610149565b60405180910390f35b6100b3610106565b6040516100c09190610149565b60405180910390f35b60008060009054906101000a900473ffffffffffffffffffffffffffffffffffffffff16905090565b6000600354905090565b6000600254905090565b6000600154905090565b61011981610164565b82525050565b61012881610176565b82525050565b60006020820190506101436000830184610110565b92915050565b600060208201905061015e600083018461011f565b92915050565b600061016f82610180565b9050919050565b6000819050919050565b600073ffffffffffffffffffffffffffffffffffffffff8216905091905056fea2646970667358221220f7103c2774246307eb12127591c4df81494ce5e27f31f9a18d1095c04399176364736f6c63430006040033",
  "source": "pragma solidity ^0.6.4;\npragma experimental ABIEncoderV2;\n\ncontract Main{\n\n    mapping(bytes32 => bytes32[][3]) public productChain; //将UUID映射到二维数组\n\n    function updateChain(bytes32 UUID, bytes32[] memory suppliers, bytes32[] memory times, bytes32[] memory descriptions) public{\n        bytes32[][3] memory chain = [suppliers, times, descriptions];\n        productChain[UUID] = chain;\n    }\n\n    function getChain(bytes32 UUID) public view returns (bytes32[][3] memory){\n        bytes32[][3] memory chain = productChain[UUID];\n        return chain;\n    }\n}\n\ncontract Product{\n\n    bytes32 name;\n    bytes32 description;\n    supplyBlock[] supplyChain;\n    bytes32 UUID; //由js生成直接传进来\n\n    constructor(bytes32 _name, bytes32 _description, bytes32 _UUID) public{\n        require(\n            _name != \"\",\n            \"Please enter a valid name.\"\n        );\n\n        require(\n            _description != \"\",\n            \"Please enter a valid description.\"\n        );\n\n        require(\n            _UUID != \"\",\n            \"Please enter a valid UUID.\"\n        );\n\n        name = _name;\n        description = _description;\n        UUID = _UUID;\n        // UUID = bytes32(keccak256(abi.encode(msg.sender, block.timestamp)));\n    }\n\n    // event renewChain(\n    //     bytes32[] suppliers,\n    //     bytes32[] times,\n    //     bytes32[] descriptions\n    // );\n\n    function addBlock(bytes32 _name, bytes32 _time,bytes32 _description) public {\n        supplyBlock newBlock = new supplyBlock(_name, _time, _description);\n        supplyChain.push(newBlock);\n\n        bytes32[] memory suppliers;\n        bytes32[] memory times;\n        bytes32[] memory descriptions;\n\n        for (uint i = 0; i <= supplyChain.length; i++){\n            suppliers[i] = supplyChain[i].getSupplierName();\n            times[i] = supplyChain[i].getTime();\n            descriptions[i] = supplyChain[i].getDescription();\n        }\n\n        Main main = new Main();\n        main.updateChain(UUID, suppliers, times, descriptions);\n\n        // emit renewChain(suppliers, times, descriptions);\n    }\n\n    function getUUID() public view returns (bytes32){\n        return UUID;\n    }\n\n    // function getChain() public view returns(bytes32[] memory, bytes32[] memory, bytes32[] memory){\n    //     bytes32[] memory suppliers;\n    //     bytes32[] memory times;\n    //     bytes32[] memory descriptions;\n\n    //     for (uint i = 0; i <= supplyChain.length; i++){\n    //         suppliers[i] = supplyChain[i].getSupplierName();\n    //         times[i] = supplyChain[i].getTime();\n    //         descriptions[i] = supplyChain[i].getDescription();\n    //     }\n\n    //     return (suppliers,times,descriptions);\n\n    // }\n}\n\n\n// 每次ADD Block前先实例化一个supplyBlock再调用add方法\ncontract supplyBlock{\n    address supplier_address;\n    bytes32 supplier_name;//商家登录后，从数据库中直接读取\n    bytes32 time;//solidity没法获取当前时间，需要js提供。\n    bytes32 description;\n\n    constructor(bytes32 _supplier_name, bytes32 _time, bytes32 _description) public{\n        require(\n            _supplier_name != \"\",\n            \"Please enter a valid supplier name.\"\n        );\n\n        require(\n            _time != \"\",\n            \"Please enter a valid time.\"\n        );\n\n        require(\n            _description != \"\",\n            \"Please enter a valid description.\"\n        );\n\n        supplier_address = msg.sender;\n        supplier_name = _supplier_name;\n        time = _time;\n        description = _description;\n    }\n\n    function getSupplierAdd() public view returns(address){\n        return supplier_address;\n    }\n\n    function getSupplierName() public view returns(bytes32){\n        return supplier_name;\n    }\n\n    function getTime() public view returns(bytes32){\n        return time;\n    }\n\n    function getDescription() public view returns(bytes32){\n        return description;\n    }\n\n}",
  "sourcePath": "/Users/samara/Desktop/project_1/COMP90055/contracts/Product.sol",
  "compiler": {
    "name": "solc",
    "version": "0.6.4+commit.1dca32f3.Emscripten.clang"
  },
  "schemaVersion": "3.1.0",
  "updatedAt": "2020-05-10T01:09:29.110Z",
  "networkType": "ethereum",
  "devdoc": {
    "methods": {}
  },
  "userdoc": {
    "methods": {}
  }
}